:1000000019C033C032C031C08DC12FC02EC02DC029
:100010002CC02BC02AC029C028C027C026C025C09C
:1000200024C023C022C021C020C01FC01EC01DC0CC
:100030001CC01BC011241FBECFEFCDBFDFE3DEBF4E
:100040001FE3A0E0BFE3EEE6F7E002C005900D92EB
:10005000A630B107D9F72FE3A6E0BFE301C01D9298
:10006000A630B207E1F731D180C3CACFE0E0F6E0B5
:1000700081818360818383E5828381E086838083BD
:1000800008958F71E0E0F6E0868381E080838087C9
:1000900080910B0680FFFCCFE0E0F6E0808991893B
:1000A00021E023870895E0E0FAE081E0808383E4A3
:1000B000818384E0828380E890E084A795A78FEF16
:1000C00090E086A397A30895E0E0FAE0108287709D
:1000D000880F808384E08583808181608083089598
:1000E000E0E0FAE086A397A384E085830895E0E04A
:1000F000FAE084A795A784E085830895E0E1F1E024
:1001000080818160808384E08283789408958F92D7
:100110009F92AF92BF92CF92DF92EF92FF929B019C
:10012000AC0160E07DE281E391E038D269017A01BF
:1001300084E9C80E82E0D81EE11CF11C80E00F2E7D
:10014000F4E98F2EF2E09F2EA12CB12CF02D13C0DC
:10015000F694E794D794C794B694A7949794879409
:100160008F5F853041F4F694E794D794C794B694A2
:10017000A79497948794C114D10491E0E906F104FF
:1001800038F7A2DFC601ACDFC401B1DFFF90EF900A
:10019000DF90CF90BF90AF909F908F9008958F92F7
:1001A0009F92AF92BF92CF92DF92EF92FF920F9306
:1001B0001F93CF93DF93DC01CB01A12C0F2EF0E630
:1001C000BF2EF02DCC24C394D12CE12CF12C00E0D7
:1001D00010E0282F392F4A2F5B2F60E070E080E07D
:1001E00090E026D20F2EFBEFAF2EF02D0F2EF9E070
:1001F000BF2EF02DC12C6FD2E22EF32ED42FC52F9F
:1002000081E03FDF8639910508F452C04E2D5F2D05
:100210006D2F7C2F8A019B01081B190B21093109C5
:10022000C901B80123E030E040E050E0D9D180912D
:10023000003F9091013FA091023FB091033F6901BF
:100240007A01C80ED91EEA1EFB1E12E0C116D104A7
:10025000E104F10444F120E8C21624E8D2062EE1BC
:10026000E206F10428F5C701B601E8D04B015C01B4
:1002700020E030E0A90160E070E080E89FE36AD010
:100280009B01AC01C501B40160D088238CF4C092FD
:10029000003FD092013FE092023FF092033FC7013E
:1002A000B60135DF05C061E070E080E090E02FDF4F
:1002B000DF91CF911F910F91FF90EF90DF90CF9042
:1002C000BF90AF909F908F90089588ED84BF10925B
:1002D000600084BF10926100C0E2D4E084E18883B2
:1002E00084E08C830BDFDFDEC1DE80E289878BE078
:1002F0008D8B64E170E080E090E051DF82E0C1DE50
:100300009C01A8ECB0E088D1052E5DE0969587951C
:10031000779567955A95D1F7502DE8EEF3E0319730
:10032000F1F7EBCF1F920F920FB60F9211248F931C
:100330008091280485FB882780F98093043F8F9162
:100340000F900FBE0F901F9018950E94590208F44D
:1003500081E008950E94BE010C9494020E948D02D7
:1003600058F00E94860240F029F45F3F29F00C9477
:100370007D0251110C94C8020C9483020E94A502C4
:1003800068F39923B1F3552391F3951B550BBB27C4
:10039000AA2762177307840738F09F5F5F4F220F09
:1003A000331F441FAA1FA9F335D00E2E3AF0E0E800
:1003B00032D091505040E695001CCAF72BD0FE2F4A
:1003C00029D0660F771F881FBB1F261737074807DE
:1003D000AB07B0E809F0BB0B802DBF01FF27935896
:1003E0005F4F3AF09E3F510578F00C947D020C94DB
:1003F000C8025F3FE4F3983ED4F3869577956795FE
:10040000B795F7959F5FC9F7880F911D96958795CA
:1004100097F90895E1E0660F771F881FBB1F6217E9
:1004200073078407BA0720F0621B730B840BBA0BA7
:10043000EE1F88F7E0950895E89409C097FB3EF415
:1004400090958095709561957F4F8F4F9F4F992321
:10045000A9F0F92F96E9BB279395F695879577959F
:100460006795B795F111F8CFFAF4BB0F11F460FF5F
:100470001BC06F5F7F4F8F4F9F4F16C0882311F0B7
:1004800096E911C0772321F09EE8872F762F05C0CB
:10049000662371F096E8862F70E060E02AF09A9566
:1004A000660F771F881FDAF7880F9695879597F95B
:1004B0000895990F0008550FAA0BE0E8FEEF1616F5
:1004C0001706E807F907C0F012161306E407F50748
:1004D00098F0621B730B840B950B39F40A2661F0BC
:1004E000232B242B252B21F408950A2609F4A1405F
:1004F000A6958FEF811D811D089597F99F6780E86C
:1005000070E060E008959FEF80EC089500240A9465
:100510001616170618060906089500240A941216DE
:100520001306140605060895092E0394000C11F411
:10053000882352F0BB0F40F4BF2B11F460FF04C0BE
:100540006F5F7F4F8F4F9F4F089557FD9058440F17
:10055000551F59F05F3F71F04795880F97FB991F22
:1005600061F09F3F79F087950895121613061406DF
:10057000551FF2CF4695F1DF08C01616170618066C
:10058000991FF1CF86957105610508940895E89447
:10059000BB2766277727CB0197F90895A1E21A2E8A
:1005A000AA1BBB1BFD010DC0AA1FBB1FEE1FFF1F17
:1005B000A217B307E407F50720F0A21BB30BE40B67
:1005C000F50B661F771F881F991F1A9469F76095AE
:1005D0007095809590959B01AC01BD01CF01089568
:1005E000052E97FB16F400940FD057FD05D0D6DFEB
:1005F00007FC02D046F408C05095409530952195EF
:100600003F4F4F4F5F4F089590958095709561953E
:100610007F4F8F4F9F4F0895A29FB001B39FC0019E
:10062000A39F01D0B29F700D811D1124911D0895CB
:10063000DF93CF931F930F939A9DF02D219FF00D81
:100640008B9DF00D8A9DE02DF10D039FF00D029F13
:10065000E00DF11D4E9DE00DF11D5E9DF00D4F9DD5
:10066000F00D7F936F93BF92AF925F934F93D5013D
:10067000D3DF8B01AC01D701CFDFEB01E80FF91F0E
:10068000D6011FD02F913F91D601C6DFC60FD71FCD
:10069000E81FF91FAF91BF9114D02F913F91BCDF9C
:1006A000C60FD71FE81FF91FD601B6DFE60FF71FE9
:1006B0009801BE01CF0111240F911F91CF91DF91BD
:1006C0000895AADF460F571FC81FD91F08F4319697
:1006D0000895689401C0E8948F929F92CF93DF931E
:1006E00005D0DF91CF919F908F9008958824992411
:1006F000F401E401B0E41B2ED4019D158E049F0487
:10070000E007F10738F4FC014B01CA01B901AD0162
:100710009E011694220F331F441F551F661F771F1B
:10072000881F991F881C991CEE1FFF1FCC1FDD1FFF
:10073000AA1FBB1F8A149B04EC05FD05CE05DF052F
:10074000A007B10748F08A189B08EC09FD09CE09FB
:10075000DF09A00BB10B21601A94E1F62EF494018D
:0E076000AF01BE01CD01000C0895F894FFCF4B
:06076E0001000000010083
:00000001FF
