:1000000019C02BC02AC029C028C027C026C025C0BF
:1000100024C023C022C021C020C01FC01EC01DC0DC
:100020001CC01BC01AC019C018C017C016C015C00C
:1000300014C013C011241FBECFEFCDBFDFE3DEBF5E
:100040001FE3A0E0BFE3E6E3F5E002C005900D92F8
:10005000A430B107D9F71FD16CC2D2CFE0E0F6E0EF
:1000600081818360818383E5828381E086838083CD
:1000700008958F718093060681E080930006809337
:10008000080680910B0680FFFCCF809110069091AE
:10009000110621E020930B060895E0E0FAE081E0EC
:1000A000808383E4818384E0828380E890E084A776
:1000B00095A78FEF90E086A397A30895E0E0FAE07C
:1000C00010828770880F808384E0858380818160BF
:1000D00080830895E0E1F1E080818160808384E0A5
:1000E0008283789408958F929F92AF92BF92CF921D
:1000F000DF92EF92FF929B01AC0160E07DE281E331
:1001000091E052D169017A0184E9C80E82E0D81EDB
:10011000E11CF11C80E054E9852E52E0952EA12CC3
:10012000B12CC114D10491E0E906F104A0F0F694D9
:10013000E794D794C794B694A794979487948F5FC5
:10014000853079F7F694E794D794C794B694A7943A
:1001500097948794E6CFB2DFC092260AD092270AFE
:1001600084E08093050A80922C0A90922D0A809355
:10017000050AFF90EF90DF90CF90BF90AF909F90D7
:100180008F9008958F929F92AF92BF92CF92DF92FD
:10019000EF92FF920F931F93CF93DF936B017C013C
:1001A00081E067DFEC01C701B60120E030E641E005
:1001B00050E044D1EBEFAE2EF9E0BF2EC12CD12C94
:1001C000E12CF12C00E010E062D149015A01CE018E
:1001D000A0E0B0E0A5019401281B390B4A0B5B0B92
:1001E000CA01B90123E030E040E050E0FFD0809147
:1001F000003F9091013FA091023FB091033F690100
:100200007A01C80ED91EEA1EFB1E32E0C316D104C5
:10021000E104F10414F140E8C41644E8D4064EE1C8
:10022000E406F104ACF4C701B6015FD029EC36EF67
:1002300043E957E453D087FF21C0C092003FD092DA
:10024000013FE092023FF092033FC701B60109C0AF
:100250006DEE77E281E090E004C061E070E080E064
:1002600090E0DF91CF911F910F91FF90EF90DF9081
:10027000CF90BF90AF909F908F9035CFDF91CF916F
:100280001F910F91FF90EF90DF90CF90BF90AF90B4
:100290009F908F90089588ED84BF1092600084BF76
:1002A0001092610084E18093200484E08093240410
:1002B00011DFF3DED3DE64E170E080E090E062DF26
:1002C00082E0D7DE9C01A8ECB0E0ACD02DE09695A2
:1002D0008795779567952A95D1F7F1CF0E94B00160
:1002E00008F481E00895E89409C097FB3EF49095E6
:1002F0008095709561957F4F8F4F9F4F9923A9F0FF
:10030000F92F96E9BB279395F6958795779567958D
:10031000B795F111F8CFFAF4BB0F11F460FF1BC0D1
:100320006F5F7F4F8F4F9F4F16C0882311F096E964
:1003300011C0772321F09EE8872F762F05C0662312
:1003400071F096E8862F70E060E02AF09A95660FCB
:10035000771F881FDAF7880F9695879597F9089584
:10036000990F0008550FAA0BE0E8FEEF16161706C6
:10037000E807F907C0F012161306E407F50798F02E
:10038000621B730B840B950B39F40A2661F0232B47
:10039000242B252B21F408950A2609F4A140A695C3
:1003A0008FEF811D811D0895A1E21A2EAA1BBB1B90
:1003B000FD010DC0AA1FBB1FEE1FFF1FA217B30731
:1003C000E407F50720F0A21BB30BE40BF50B661F47
:1003D000771F881F991F1A9469F76095709580950B
:1003E00090959B01AC01BD01CF010895052E97FBAF
:1003F00016F400940FD057FD05D0D6DF07FC02D0CD
:1004000046F408C050954095309521953F4F4F4F89
:100410005F4F089590958095709561957F4F8F4FB0
:100420009F4F0895A29FB001B39FC001A39F01D029
:10043000B29F700D811D1124911D0895E894DF93E2
:10044000CF93FC01DB01EEDF7F936F93E9019A010B
:10045000AC01BF93AF933F932F93DF01E3DF26F40B
:100460006C1B7D0B820B930B9E01EB01FC0159D0A1
:10047000AF91BF912F913F9154D0BE01CF01F901AF
:100480002F913F91CF91DF910895689401C0E89436
:100490008F929F92CF93DF9305D0DF91CF919F9062
:1004A0008F90089588249924F401E401B0E41B2E70
:1004B000D4019D158E049F04E007F10738F4FC0178
:1004C0004B01CA01B901AD019E011694220F331FE1
:1004D000441F551F661F771F881F991F881C991C72
:1004E000EE1FFF1FCC1FDD1FAA1FBB1F8A149B041A
:1004F000EC05FD05CE05DF05A007B10748F08A1819
:100500009B08EC09FD09CE09DF09A00BB10B2160A6
:100510001A94E1F62EF49401AF01BE01CD01000C56
:10052000089580DF460F571FC81FD91F08F4319662
:060530000895F894FFCFCE
:0405360001000000C0
:00000001FF
